{
  "contractName": "SmartBakkal",
  "abi": [
    {
      "constant": true,
      "inputs": [
        {
          "internalType": "uint256",
          "name": "",
          "type": "uint256"
        }
      ],
      "name": "orders",
      "outputs": [
        {
          "internalType": "address",
          "name": "account",
          "type": "address"
        },
        {
          "internalType": "uint256",
          "name": "id",
          "type": "uint256"
        },
        {
          "internalType": "string",
          "name": "content",
          "type": "string"
        },
        {
          "internalType": "bool",
          "name": "completed",
          "type": "bool"
        }
      ],
      "payable": false,
      "stateMutability": "view",
      "type": "function"
    },
    {
      "constant": false,
      "inputs": [
        {
          "internalType": "string",
          "name": "_content",
          "type": "string"
        }
      ],
      "name": "createOrder",
      "outputs": [],
      "payable": false,
      "stateMutability": "nonpayable",
      "type": "function"
    },
    {
      "constant": true,
      "inputs": [
        {
          "internalType": "uint256",
          "name": "id",
          "type": "uint256"
        }
      ],
      "name": "getOrder",
      "outputs": [
        {
          "internalType": "uint256",
          "name": "",
          "type": "uint256"
        },
        {
          "internalType": "string",
          "name": "",
          "type": "string"
        },
        {
          "internalType": "bool",
          "name": "",
          "type": "bool"
        }
      ],
      "payable": false,
      "stateMutability": "view",
      "type": "function"
    },
    {
      "constant": true,
      "inputs": [],
      "name": "getOrderCount",
      "outputs": [
        {
          "internalType": "uint256",
          "name": "",
          "type": "uint256"
        }
      ],
      "payable": false,
      "stateMutability": "view",
      "type": "function"
    },
    {
      "constant": true,
      "inputs": [],
      "name": "getSender",
      "outputs": [
        {
          "internalType": "address",
          "name": "",
          "type": "address"
        }
      ],
      "payable": false,
      "stateMutability": "view",
      "type": "function"
    }
  ],
  "bytecode": "0x60806040526000805534801561001457600080fd5b50610770806100246000396000f3fe608060405234801561001057600080fd5b50600436106100575760003560e01c806303b7c7641461005c5780635e01eb5a146101175780638d0a5fbb14610161578063a85c38ef1461017f578063d09ef2411461026b575b600080fd5b6101156004803603602081101561007257600080fd5b810190808035906020019064010000000081111561008f57600080fd5b8201836020820111156100a157600080fd5b803590602001918460018302840111640100000000831117156100c357600080fd5b91908080601f016020809104026020016040519081016040528093929190818152602001838380828437600081840152601f19601f820116905080830192505050505050509192919290505050610324565b005b61011f610419565b604051808273ffffffffffffffffffffffffffffffffffffffff1673ffffffffffffffffffffffffffffffffffffffff16815260200191505060405180910390f35b610169610421565b6040518082815260200191505060405180910390f35b6101ab6004803603602081101561019557600080fd5b810190808035906020019092919050505061042a565b604051808573ffffffffffffffffffffffffffffffffffffffff1673ffffffffffffffffffffffffffffffffffffffff1681526020018481526020018060200183151515158152602001828103825284818151815260200191508051906020019080838360005b8381101561022d578082015181840152602081019050610212565b50505050905090810190601f16801561025a5780820380516001836020036101000a031916815260200191505b509550505050505060405180910390f35b6102976004803603602081101561028157600080fd5b810190808035906020019092919050505061051f565b604051808481526020018060200183151515158152602001828103825284818151815260200191508051906020019080838360005b838110156102e75780820151818401526020810190506102cc565b50505050905090810190601f1680156103145780820380516001836020036101000a031916815260200191505b5094505050505060405180910390f35b60405180608001604052803373ffffffffffffffffffffffffffffffffffffffff168152602001600054815260200182815260200160001515815250600160008054815260200190815260200160002060008201518160000160006101000a81548173ffffffffffffffffffffffffffffffffffffffff021916908373ffffffffffffffffffffffffffffffffffffffff1602179055506020820151816001015560408201518160020190805190602001906103e1929190610696565b5060608201518160030160006101000a81548160ff021916908315150217905550905050600080815480929190600101919050555050565b600033905090565b60008054905090565b60016020528060005260406000206000915090508060000160009054906101000a900473ffffffffffffffffffffffffffffffffffffffff1690806001015490806002018054600181600116156101000203166002900480601f0160208091040260200160405190810160405280929190818152602001828054600181600116156101000203166002900480156105025780601f106104d757610100808354040283529160200191610502565b820191906000526020600020905b8154815290600101906020018083116104e557829003601f168201915b5050505050908060030160009054906101000a900460ff16905084565b600060606000805484111561059c576040517f08c379a00000000000000000000000000000000000000000000000000000000081526004018080602001828103825260158152602001807f4f7264657220646f6573206e6f742065786973742e000000000000000000000081525060200191505060405180910390fd5b6001600085815260200190815260200160002060010154600160008681526020019081526020016000206002016001600087815260200190815260200160002060030160009054906101000a900460ff16818054600181600116156101000203166002900480601f0160208091040260200160405190810160405280929190818152602001828054600181600116156101000203166002900480156106825780601f1061065757610100808354040283529160200191610682565b820191906000526020600020905b81548152906001019060200180831161066557829003601f168201915b505050505091509250925092509193909250565b828054600181600116156101000203166002900490600052602060002090601f016020900481019282601f106106d757805160ff1916838001178555610705565b82800160010185558215610705579182015b828111156107045782518255916020019190600101906106e9565b5b5090506107129190610716565b5090565b61073891905b8082111561073457600081600090555060010161071c565b5090565b9056fea265627a7a723158207c79b6d39379d9b2e4a01da8bf0306a204a4d4b687ffa5d684f46362d55734ad64736f6c634300050c0032",
  "source": "pragma solidity ^0.5.0;\n\ncontract SmartBakkal {\n\n    uint private orderCount = 0;\n\n    struct Order {\n        address account;\n        uint id;\n        string content;\n        bool completed;\n    }\n\n    mapping(uint => Order) public orders;\n\n    function createOrder(string memory _content) public {\n        orders[orderCount] = Order(msg.sender, orderCount, _content, false);\n        orderCount++;\n    }\n\n    function getOrder(uint id) public view returns (uint, string memory, bool) {\n        require(id <= orderCount, \"Order does not exist.\");\n        return (orders[id].id, orders[id].content, orders[id].completed);\n    }\n\n    function getOrderCount() public view returns (uint) {\n        return orderCount;\n    }\n\n    function getSender() public view returns (address) {\n        return msg.sender;\n    }\n\n}",
  "sourcePath": "/home/arman/My_files/Blockchain_take03/contracts/SmartBakkal.sol",
  "compiler": {
    "name": "solc",
    "version": "0.5.12+commit.7709ece9.Emscripten.clang"
  },
  "schemaVersion": "3.0.19",
  "updatedAt": "2019-11-25T20:46:23.655Z",
  "networkType": "ethereum",
  "devdoc": {
    "methods": {}
  },
  "userdoc": {
    "methods": {}
  }
}