{
  "contractName": "SmartBakkal",
  "abi": [
    {
      "anonymous": false,
      "inputs": [
        {
          "indexed": false,
          "internalType": "address",
          "name": "",
          "type": "address"
        },
        {
          "indexed": false,
          "internalType": "uint256",
          "name": "",
          "type": "uint256"
        }
      ],
      "name": "Received",
      "type": "event"
    },
    {
      "constant": true,
      "inputs": [
        {
          "internalType": "uint256",
          "name": "",
          "type": "uint256"
        }
      ],
      "name": "orders",
      "outputs": [
        {
          "internalType": "address",
          "name": "account",
          "type": "address"
        },
        {
          "internalType": "uint256",
          "name": "id",
          "type": "uint256"
        },
        {
          "internalType": "string",
          "name": "content",
          "type": "string"
        },
        {
          "internalType": "bool",
          "name": "completed",
          "type": "bool"
        }
      ],
      "payable": false,
      "stateMutability": "view",
      "type": "function"
    },
    {
      "constant": false,
      "inputs": [
        {
          "internalType": "string",
          "name": "_content",
          "type": "string"
        }
      ],
      "name": "createOrder",
      "outputs": [],
      "payable": false,
      "stateMutability": "nonpayable",
      "type": "function"
    },
    {
      "constant": true,
      "inputs": [
        {
          "internalType": "uint256",
          "name": "id",
          "type": "uint256"
        }
      ],
      "name": "getOrder",
      "outputs": [
        {
          "internalType": "uint256",
          "name": "",
          "type": "uint256"
        },
        {
          "internalType": "string",
          "name": "",
          "type": "string"
        },
        {
          "internalType": "bool",
          "name": "",
          "type": "bool"
        }
      ],
      "payable": false,
      "stateMutability": "view",
      "type": "function"
    },
    {
      "constant": true,
      "inputs": [],
      "name": "getOrderCount",
      "outputs": [
        {
          "internalType": "uint256",
          "name": "",
          "type": "uint256"
        }
      ],
      "payable": false,
      "stateMutability": "view",
      "type": "function"
    },
    {
      "constant": true,
      "inputs": [],
      "name": "getSender",
      "outputs": [
        {
          "internalType": "address",
          "name": "",
          "type": "address"
        }
      ],
      "payable": false,
      "stateMutability": "view",
      "type": "function"
    },
    {
      "constant": false,
      "inputs": [
        {
          "internalType": "uint256",
          "name": "no",
          "type": "uint256"
        }
      ],
      "name": "setAsComplete",
      "outputs": [],
      "payable": false,
      "stateMutability": "nonpayable",
      "type": "function"
    }
  ],
  "bytecode": "0x608060405260008055735b99a9c66ead2f0ae898c3c156eed695b57afb55600160006101000a81548173ffffffffffffffffffffffffffffffffffffffff021916908373ffffffffffffffffffffffffffffffffffffffff16021790555034801561006957600080fd5b506107e4806100796000396000f3fe608060405234801561001057600080fd5b50600436106100625760003560e01c806303b7c764146100675780631abe3b20146101225780635e01eb5a146101505780638d0a5fbb1461019a578063a85c38ef146101b8578063d09ef241146102a4575b600080fd5b6101206004803603602081101561007d57600080fd5b810190808035906020019064010000000081111561009a57600080fd5b8201836020820111156100ac57600080fd5b803590602001918460018302840111640100000000831117156100ce57600080fd5b91908080601f016020809104026020016040519081016040528093929190818152602001838380828437600081840152601f19601f82011690508083019250505050505050919291929050505061035d565b005b61014e6004803603602081101561013857600080fd5b8101908080359060200190929190505050610452565b005b61015861048d565b604051808273ffffffffffffffffffffffffffffffffffffffff1673ffffffffffffffffffffffffffffffffffffffff16815260200191505060405180910390f35b6101a2610495565b6040518082815260200191505060405180910390f35b6101e4600480360360208110156101ce57600080fd5b810190808035906020019092919050505061049e565b604051808573ffffffffffffffffffffffffffffffffffffffff1673ffffffffffffffffffffffffffffffffffffffff1681526020018481526020018060200183151515158152602001828103825284818151815260200191508051906020019080838360005b8381101561026657808201518184015260208101905061024b565b50505050905090810190601f1680156102935780820380516001836020036101000a031916815260200191505b509550505050505060405180910390f35b6102d0600480360360208110156102ba57600080fd5b8101908080359060200190929190505050610593565b604051808481526020018060200183151515158152602001828103825284818151815260200191508051906020019080838360005b83811015610320578082015181840152602081019050610305565b50505050905090810190601f16801561034d5780820380516001836020036101000a031916815260200191505b5094505050505060405180910390f35b60405180608001604052803373ffffffffffffffffffffffffffffffffffffffff168152602001600054815260200182815260200160001515815250600260008054815260200190815260200160002060008201518160000160006101000a81548173ffffffffffffffffffffffffffffffffffffffff021916908373ffffffffffffffffffffffffffffffffffffffff16021790555060208201518160010155604082015181600201908051906020019061041a92919061070a565b5060608201518160030160006101000a81548160ff021916908315150217905550905050600080815480929190600101919050555050565b600060018203905060016002600083815260200190815260200160002060030160006101000a81548160ff0219169083151502179055505050565b600033905090565b60008054905090565b60026020528060005260406000206000915090508060000160009054906101000a900473ffffffffffffffffffffffffffffffffffffffff1690806001015490806002018054600181600116156101000203166002900480601f0160208091040260200160405190810160405280929190818152602001828054600181600116156101000203166002900480156105765780601f1061054b57610100808354040283529160200191610576565b820191906000526020600020905b81548152906001019060200180831161055957829003601f168201915b5050505050908060030160009054906101000a900460ff16905084565b6000606060008054841115610610576040517f08c379a00000000000000000000000000000000000000000000000000000000081526004018080602001828103825260158152602001807f4f7264657220646f6573206e6f742065786973742e000000000000000000000081525060200191505060405180910390fd5b6002600085815260200190815260200160002060010154600260008681526020019081526020016000206002016002600087815260200190815260200160002060030160009054906101000a900460ff16818054600181600116156101000203166002900480601f0160208091040260200160405190810160405280929190818152602001828054600181600116156101000203166002900480156106f65780601f106106cb576101008083540402835291602001916106f6565b820191906000526020600020905b8154815290600101906020018083116106d957829003601f168201915b505050505091509250925092509193909250565b828054600181600116156101000203166002900490600052602060002090601f016020900481019282601f1061074b57805160ff1916838001178555610779565b82800160010185558215610779579182015b8281111561077857825182559160200191906001019061075d565b5b509050610786919061078a565b5090565b6107ac91905b808211156107a8576000816000905550600101610790565b5090565b9056fea265627a7a72315820edb271c3c2454f0f55fab961aab7e091079a3aa3fb11abf697f52d6ade11cf5e64736f6c634300050c0032",
  "source": "pragma solidity ^0.5.0;\n\ncontract SmartBakkal {\n\n    uint private orderCount = 0;\n    address payable private adminAddress = address(0x5b99A9C66EAd2F0ae898c3c156Eed695b57aFB55);\n\n    struct Order {\n        address account;\n        uint id;\n        string content;\n        bool completed;\n    }\n\n    mapping(uint => Order) public orders;\n\n    event Received(address, uint);\n\n    function createOrder(string memory _content) public {\n        orders[orderCount] = Order(msg.sender, orderCount, _content, false);\n        orderCount++;\n    }\n\n    function getOrder(uint id) public view returns (uint, string memory, bool) {\n        require(id <= orderCount, \"Order does not exist.\");\n        return (orders[id].id, orders[id].content, orders[id].completed);\n    }\n\n    function getOrderCount() public view returns (uint) {\n        return orderCount;\n    }\n\n    function getSender() public view returns (address) {\n        return msg.sender;\n    }\n\n    function setAsComplete(uint no) public {\n        uint orderNo = no - 1;\n        orders[orderNo].completed = true;\n    }\n\n}",
  "sourcePath": "/home/arman/My_files/Blockchain_take03/contracts/SmartBakkal.sol",
  "compiler": {
    "name": "solc",
    "version": "0.5.12+commit.7709ece9.Emscripten.clang"
  },
  "schemaVersion": "3.0.19",
  "updatedAt": "2019-12-17T19:29:11.331Z",
  "networkType": "ethereum",
  "devdoc": {
    "methods": {}
  },
  "userdoc": {
    "methods": {}
  }
}