{
  "contractName": "SmartBakkal",
  "abi": [
    {
      "inputs": [],
      "payable": false,
      "stateMutability": "nonpayable",
      "type": "constructor"
    },
    {
      "constant": true,
      "inputs": [
        {
          "internalType": "uint256",
          "name": "",
          "type": "uint256"
        }
      ],
      "name": "orders",
      "outputs": [
        {
          "internalType": "address",
          "name": "account",
          "type": "address"
        },
        {
          "internalType": "uint256",
          "name": "id",
          "type": "uint256"
        },
        {
          "internalType": "string",
          "name": "content",
          "type": "string"
        },
        {
          "internalType": "bool",
          "name": "completed",
          "type": "bool"
        },
        {
          "internalType": "uint248",
          "name": "paidAmount",
          "type": "uint248"
        }
      ],
      "payable": false,
      "stateMutability": "view",
      "type": "function"
    },
    {
      "constant": false,
      "inputs": [
        {
          "internalType": "string",
          "name": "_content",
          "type": "string"
        },
        {
          "internalType": "uint248",
          "name": "paidAmount",
          "type": "uint248"
        }
      ],
      "name": "createOrder",
      "outputs": [],
      "payable": true,
      "stateMutability": "payable",
      "type": "function"
    },
    {
      "constant": true,
      "inputs": [
        {
          "internalType": "uint256",
          "name": "id",
          "type": "uint256"
        }
      ],
      "name": "getOrder",
      "outputs": [
        {
          "internalType": "uint256",
          "name": "",
          "type": "uint256"
        },
        {
          "internalType": "string",
          "name": "",
          "type": "string"
        },
        {
          "internalType": "bool",
          "name": "",
          "type": "bool"
        }
      ],
      "payable": false,
      "stateMutability": "view",
      "type": "function"
    },
    {
      "constant": true,
      "inputs": [],
      "name": "getOrderCount",
      "outputs": [
        {
          "internalType": "uint256",
          "name": "",
          "type": "uint256"
        }
      ],
      "payable": false,
      "stateMutability": "view",
      "type": "function"
    },
    {
      "constant": true,
      "inputs": [],
      "name": "getSender",
      "outputs": [
        {
          "internalType": "address",
          "name": "",
          "type": "address"
        }
      ],
      "payable": false,
      "stateMutability": "view",
      "type": "function"
    },
    {
      "constant": false,
      "inputs": [
        {
          "internalType": "uint256",
          "name": "no",
          "type": "uint256"
        }
      ],
      "name": "setAsComplete",
      "outputs": [],
      "payable": true,
      "stateMutability": "payable",
      "type": "function"
    }
  ],
  "bytecode": "0x6080604052600060015534801561001557600080fd5b50336000806101000a81548173ffffffffffffffffffffffffffffffffffffffff021916908373ffffffffffffffffffffffffffffffffffffffff160217905550610ada806100656000396000f3fe6080604052600436106100555760003560e01c80631abe3b201461005a5780635e01eb5a146100885780638d0a5fbb146100df578063a85c38ef1461010a578063cbd731ef1461024c578063d09ef24114610332575b600080fd5b6100866004803603602081101561007057600080fd5b81019080803590602001909291905050506103f8565b005b34801561009457600080fd5b5061009d61059a565b604051808273ffffffffffffffffffffffffffffffffffffffff1673ffffffffffffffffffffffffffffffffffffffff16815260200191505060405180910390f35b3480156100eb57600080fd5b506100f46105a2565b6040518082815260200191505060405180910390f35b34801561011657600080fd5b506101436004803603602081101561012d57600080fd5b81019080803590602001909291905050506105ac565b604051808673ffffffffffffffffffffffffffffffffffffffff1673ffffffffffffffffffffffffffffffffffffffff1681526020018581526020018060200184151515158152602001837effffffffffffffffffffffffffffffffffffffffffffffffffffffffffffff167effffffffffffffffffffffffffffffffffffffffffffffffffffffffffffff168152602001828103825285818151815260200191508051906020019080838360005b8381101561020d5780820151818401526020810190506101f2565b50505050905090810190601f16801561023a5780820380516001836020036101000a031916815260200191505b50965050505050505060405180910390f35b6103306004803603604081101561026257600080fd5b810190808035906020019064010000000081111561027f57600080fd5b82018360208201111561029157600080fd5b803590602001918460018302840111640100000000831117156102b357600080fd5b91908080601f016020809104026020016040519081016040528093929190818152602001838380828437600081840152601f19601f82011690508083019250505050505050919291929080357effffffffffffffffffffffffffffffffffffffffffffffffffffffffffffff1690602001909291905050506106d2565b005b34801561033e57600080fd5b5061036b6004803603602081101561035557600080fd5b810190808035906020019092919050505061084e565b604051808481526020018060200183151515158152602001828103825284818151815260200191508051906020019080838360005b838110156103bb5780820151818401526020810190506103a0565b50505050905090810190601f1680156103e85780820380516001836020036101000a031916815260200191505b5094505050505060405180910390f35b6000809054906101000a900473ffffffffffffffffffffffffffffffffffffffff1673ffffffffffffffffffffffffffffffffffffffff163373ffffffffffffffffffffffffffffffffffffffff161461049d576040517f08c379a000000000000000000000000000000000000000000000000000000000815260040180806020018281038252603a815260200180610a6c603a913960400191505060405180910390fd5b600060018203905060016002600083815260200190815260200160002060030160006101000a81548160ff0219169083151502179055503373ffffffffffffffffffffffffffffffffffffffff166108fc6002600084815260200190815260200160002060030160019054906101000a90047effffffffffffffffffffffffffffffffffffffffffffffffffffffffffffff167effffffffffffffffffffffffffffffffffffffffffffffffffffffffffffff163073ffffffffffffffffffffffffffffffffffffffff1631039081150290604051600060405180830381858888f19350505050158015610595573d6000803e3d6000fd5b505050565b600033905090565b6000600154905090565b60026020528060005260406000206000915090508060000160009054906101000a900473ffffffffffffffffffffffffffffffffffffffff1690806001015490806002018054600181600116156101000203166002900480601f0160208091040260200160405190810160405280929190818152602001828054600181600116156101000203166002900480156106845780601f1061065957610100808354040283529160200191610684565b820191906000526020600020905b81548152906001019060200180831161066757829003601f168201915b5050505050908060030160009054906101000a900460ff16908060030160019054906101000a90047effffffffffffffffffffffffffffffffffffffffffffffffffffffffffffff16905085565b6040518060a001604052803373ffffffffffffffffffffffffffffffffffffffff1681526020016001548152602001838152602001600015158152602001827effffffffffffffffffffffffffffffffffffffffffffffffffffffffffffff1681525060026000600154815260200190815260200160002060008201518160000160006101000a81548173ffffffffffffffffffffffffffffffffffffffff021916908373ffffffffffffffffffffffffffffffffffffffff1602179055506020820151816001015560408201518160020190805190602001906107b79291906109c6565b5060608201518160030160006101000a81548160ff02191690831515021790555060808201518160030160016101000a8154817effffffffffffffffffffffffffffffffffffffffffffffffffffffffffffff02191690837effffffffffffffffffffffffffffffffffffffffffffffffffffffffffffff1602179055509050506001600081548092919060010191905055505050565b6000606060006001548411156108cc576040517f08c379a00000000000000000000000000000000000000000000000000000000081526004018080602001828103825260158152602001807f4f7264657220646f6573206e6f742065786973742e000000000000000000000081525060200191505060405180910390fd5b6002600085815260200190815260200160002060010154600260008681526020019081526020016000206002016002600087815260200190815260200160002060030160009054906101000a900460ff16818054600181600116156101000203166002900480601f0160208091040260200160405190810160405280929190818152602001828054600181600116156101000203166002900480156109b25780601f10610987576101008083540402835291602001916109b2565b820191906000526020600020905b81548152906001019060200180831161099557829003601f168201915b505050505091509250925092509193909250565b828054600181600116156101000203166002900490600052602060002090601f016020900481019282601f10610a0757805160ff1916838001178555610a35565b82800160010185558215610a35579182015b82811115610a34578251825591602001919060010190610a19565b5b509050610a429190610a46565b5090565b610a6891905b80821115610a64576000816000905550600101610a4c565b5090565b9056fe4f6e6c792074686520636f6e7472616374206f776e657220697320616c6c6f77656420746f20706572666f726d207468697320616374696f6e2ea265627a7a72315820f3f3ee8ecf6c1e5d440ae12672ed56c56736ff37526f539d965837920754c84464736f6c634300050c0032",
  "source": "pragma solidity ^0.5.0;\n\ncontract SmartBakkal {\n\n    address private contractOwner;\n\n    uint private orderCount = 0;\n\n    constructor() public {\n        contractOwner = msg.sender;\n    }\n\n    struct Order {\n        address account;\n        uint id;\n        string content;\n        bool completed;\n        uint248 paidAmount;\n    }\n\n    mapping(uint => Order) public orders;\n\n    function createOrder(string memory _content, uint248 paidAmount) public payable {\n        orders[orderCount] = Order(msg.sender, orderCount, _content, false, paidAmount);\n        orderCount++;\n    }\n\n    function getOrder(uint id) public view returns (uint, string memory, bool) {\n        require(id <= orderCount, \"Order does not exist.\");\n        return (orders[id].id, orders[id].content, orders[id].completed);\n    }\n\n    function getOrderCount() public view returns (uint) {\n        return orderCount;\n    }\n\n    function getSender() public view returns (address) {\n        return msg.sender;\n    }\n\n    function setAsComplete(uint no) public payable {\n        require(msg.sender == contractOwner, \"Only the contract owner is allowed to perform this action.\");\n        uint orderNo = no - 1;\n        orders[orderNo].completed = true;\n        msg.sender.transfer(address(this).balance - orders[orderNo].paidAmount);\n    }\n\n}",
  "sourcePath": "/home/arman/My_files/Blockchain_take03/contracts/SmartBakkal.sol",
  "compiler": {
    "name": "solc",
    "version": "0.5.12+commit.7709ece9.Emscripten.clang"
  },
  "schemaVersion": "3.0.19",
  "updatedAt": "2019-12-21T18:34:04.126Z",
  "networkType": "ethereum",
  "devdoc": {
    "methods": {}
  },
  "userdoc": {
    "methods": {}
  }
}